{
	"Mystatus.sol": {
		"Mystatus": {
			"abi": [
				{
					"constant": false,
					"inputs": [],
					"name": "red",
					"outputs": [],
					"payable": false,
					"stateMutability": "nonpayable",
					"type": "function"
				},
				{
					"constant": true,
					"inputs": [],
					"name": "statusVal",
					"outputs": [
						{
							"name": "",
							"type": "uint8"
						}
					],
					"payable": false,
					"stateMutability": "view",
					"type": "function"
				},
				{
					"constant": false,
					"inputs": [],
					"name": "amber",
					"outputs": [],
					"payable": false,
					"stateMutability": "nonpayable",
					"type": "function"
				},
				{
					"constant": false,
					"inputs": [],
					"name": "green",
					"outputs": [],
					"payable": false,
					"stateMutability": "nonpayable",
					"type": "function"
				},
				{
					"inputs": [],
					"payable": false,
					"stateMutability": "nonpayable",
					"type": "constructor"
				}
			],
			"devdoc": {
				"methods": {}
			},
			"evm": {
				"assembly": "    /* \"Mystatus.sol\":28:350  contract Mystatus {\r... */\n  mstore(0x40, 0x80)\n    /* \"Mystatus.sol\":113:164  constructor() public{\r... */\n  callvalue\n    /* \"--CODEGEN--\":8:17   */\n  dup1\n    /* \"--CODEGEN--\":5:7   */\n  iszero\n  tag_1\n  jumpi\n    /* \"--CODEGEN--\":30:31   */\n  0x0\n    /* \"--CODEGEN--\":27:28   */\n  dup1\n    /* \"--CODEGEN--\":20:32   */\n  revert\n    /* \"--CODEGEN--\":5:7   */\ntag_1:\n    /* \"Mystatus.sol\":113:164  constructor() public{\r... */\n  pop\n    /* \"Mystatus.sol\":147:159  Status.Green */\n  0x2\n    /* \"Mystatus.sol\":137:146  statusVal */\n  0x0\n  dup1\n    /* \"Mystatus.sol\":137:159  statusVal=Status.Green */\n  0x100\n  exp\n  dup2\n  sload\n  dup2\n  0xff\n  mul\n  not\n  and\n  swap1\n  dup4\n  0x2\n  dup2\n  gt\n  iszero\n  tag_4\n  jumpi\n  invalid\ntag_4:\n  mul\n  or\n  swap1\n  sstore\n  pop\n    /* \"Mystatus.sol\":28:350  contract Mystatus {\r... */\n  dataSize(sub_0)\n  dup1\n  dataOffset(sub_0)\n  0x0\n  codecopy\n  0x0\n  return\nstop\n\nsub_0: assembly {\n        /* \"Mystatus.sol\":28:350  contract Mystatus {\r... */\n      mstore(0x40, 0x80)\n      jumpi(tag_1, lt(calldatasize, 0x4))\n      calldataload(0x0)\n      0x100000000000000000000000000000000000000000000000000000000\n      swap1\n      div\n      0xffffffff\n      and\n      dup1\n      0x2930cf24\n      eq\n      tag_2\n      jumpi\n      dup1\n      0x6c191324\n      eq\n      tag_3\n      jumpi\n      dup1\n      0x91927af1\n      eq\n      tag_4\n      jumpi\n      dup1\n      0xf2f1e132\n      eq\n      tag_5\n      jumpi\n    tag_1:\n      0x0\n      dup1\n      revert\n        /* \"Mystatus.sol\":295:347  function red() public  {\r... */\n    tag_2:\n      callvalue\n        /* \"--CODEGEN--\":8:17   */\n      dup1\n        /* \"--CODEGEN--\":5:7   */\n      iszero\n      tag_6\n      jumpi\n        /* \"--CODEGEN--\":30:31   */\n      0x0\n        /* \"--CODEGEN--\":27:28   */\n      dup1\n        /* \"--CODEGEN--\":20:32   */\n      revert\n        /* \"--CODEGEN--\":5:7   */\n    tag_6:\n        /* \"Mystatus.sol\":295:347  function red() public  {\r... */\n      pop\n      tag_7\n      jump(tag_8)\n    tag_7:\n      stop\n        /* \"Mystatus.sol\":84:107  Status public statusVal */\n    tag_3:\n      callvalue\n        /* \"--CODEGEN--\":8:17   */\n      dup1\n        /* \"--CODEGEN--\":5:7   */\n      iszero\n      tag_9\n      jumpi\n        /* \"--CODEGEN--\":30:31   */\n      0x0\n        /* \"--CODEGEN--\":27:28   */\n      dup1\n        /* \"--CODEGEN--\":20:32   */\n      revert\n        /* \"--CODEGEN--\":5:7   */\n    tag_9:\n        /* \"Mystatus.sol\":84:107  Status public statusVal */\n      pop\n      tag_10\n      jump(tag_11)\n    tag_10:\n      mload(0x40)\n      dup1\n      dup3\n      0x2\n      dup2\n      gt\n      iszero\n      tag_12\n      jumpi\n      invalid\n    tag_12:\n      0xff\n      and\n      dup2\n      mstore\n      0x20\n      add\n      swap2\n      pop\n      pop\n      mload(0x40)\n      dup1\n      swap2\n      sub\n      swap1\n      return\n        /* \"Mystatus.sol\":229:286  function amber() public {\r... */\n    tag_4:\n      callvalue\n        /* \"--CODEGEN--\":8:17   */\n      dup1\n        /* \"--CODEGEN--\":5:7   */\n      iszero\n      tag_13\n      jumpi\n        /* \"--CODEGEN--\":30:31   */\n      0x0\n        /* \"--CODEGEN--\":27:28   */\n      dup1\n        /* \"--CODEGEN--\":20:32   */\n      revert\n        /* \"--CODEGEN--\":5:7   */\n    tag_13:\n        /* \"Mystatus.sol\":229:286  function amber() public {\r... */\n      pop\n      tag_14\n      jump(tag_15)\n    tag_14:\n      stop\n        /* \"Mystatus.sol\":170:226  function green() public  {\r... */\n    tag_5:\n      callvalue\n        /* \"--CODEGEN--\":8:17   */\n      dup1\n        /* \"--CODEGEN--\":5:7   */\n      iszero\n      tag_16\n      jumpi\n        /* \"--CODEGEN--\":30:31   */\n      0x0\n        /* \"--CODEGEN--\":27:28   */\n      dup1\n        /* \"--CODEGEN--\":20:32   */\n      revert\n        /* \"--CODEGEN--\":5:7   */\n    tag_16:\n        /* \"Mystatus.sol\":170:226  function green() public  {\r... */\n      pop\n      tag_17\n      jump(tag_18)\n    tag_17:\n      stop\n        /* \"Mystatus.sol\":295:347  function red() public  {\r... */\n    tag_8:\n        /* \"Mystatus.sol\":332:342  Status.Red */\n      0x0\n        /* \"Mystatus.sol\":322:331  statusVal */\n      dup1\n      0x0\n        /* \"Mystatus.sol\":322:342  statusVal=Status.Red */\n      0x100\n      exp\n      dup2\n      sload\n      dup2\n      0xff\n      mul\n      not\n      and\n      swap1\n      dup4\n      0x2\n      dup2\n      gt\n      iszero\n      tag_20\n      jumpi\n      invalid\n    tag_20:\n      mul\n      or\n      swap1\n      sstore\n      pop\n        /* \"Mystatus.sol\":295:347  function red() public  {\r... */\n      jump\t// out\n        /* \"Mystatus.sol\":84:107  Status public statusVal */\n    tag_11:\n      0x0\n      dup1\n      swap1\n      sload\n      swap1\n      0x100\n      exp\n      swap1\n      div\n      0xff\n      and\n      dup2\n      jump\t// out\n        /* \"Mystatus.sol\":229:286  function amber() public {\r... */\n    tag_15:\n        /* \"Mystatus.sol\":269:281  Status.Amber */\n      0x1\n        /* \"Mystatus.sol\":257:266  statusVal */\n      0x0\n      dup1\n        /* \"Mystatus.sol\":257:281  statusVal = Status.Amber */\n      0x100\n      exp\n      dup2\n      sload\n      dup2\n      0xff\n      mul\n      not\n      and\n      swap1\n      dup4\n      0x2\n      dup2\n      gt\n      iszero\n      tag_22\n      jumpi\n      invalid\n    tag_22:\n      mul\n      or\n      swap1\n      sstore\n      pop\n        /* \"Mystatus.sol\":229:286  function amber() public {\r... */\n      jump\t// out\n        /* \"Mystatus.sol\":170:226  function green() public  {\r... */\n    tag_18:\n        /* \"Mystatus.sol\":209:221  Status.Green */\n      0x2\n        /* \"Mystatus.sol\":199:208  statusVal */\n      0x0\n      dup1\n        /* \"Mystatus.sol\":199:221  statusVal=Status.Green */\n      0x100\n      exp\n      dup2\n      sload\n      dup2\n      0xff\n      mul\n      not\n      and\n      swap1\n      dup4\n      0x2\n      dup2\n      gt\n      iszero\n      tag_24\n      jumpi\n      invalid\n    tag_24:\n      mul\n      or\n      swap1\n      sstore\n      pop\n        /* \"Mystatus.sol\":170:226  function green() public  {\r... */\n      jump\t// out\n\n    auxdata: 0xa165627a7a7230582003305af626c4bceae5e8b4b101d1dbcca8cf8cb67681b2be0934bb23801ad7640029\n}\n",
				"bytecode": {
					"linkReferences": {},
					"object": "608060405234801561001057600080fd5b5060026000806101000a81548160ff0219169083600281111561002f57fe5b0217905550610192806100436000396000f300608060405260043610610062576000357c0100000000000000000000000000000000000000000000000000000000900463ffffffff1680632930cf24146100675780636c1913241461007e57806391927af1146100b7578063f2f1e132146100ce575b600080fd5b34801561007357600080fd5b5061007c6100e5565b005b34801561008a57600080fd5b5061009361010a565b604051808260028111156100a357fe5b60ff16815260200191505060405180910390f35b3480156100c357600080fd5b506100cc61011c565b005b3480156100da57600080fd5b506100e3610141565b005b60008060006101000a81548160ff0219169083600281111561010357fe5b0217905550565b6000809054906101000a900460ff1681565b60016000806101000a81548160ff0219169083600281111561013a57fe5b0217905550565b60026000806101000a81548160ff0219169083600281111561015f57fe5b02179055505600a165627a7a7230582003305af626c4bceae5e8b4b101d1dbcca8cf8cb67681b2be0934bb23801ad7640029",
					"opcodes": "PUSH1 0x80 PUSH1 0x40 MSTORE CALLVALUE DUP1 ISZERO PUSH2 0x10 JUMPI PUSH1 0x0 DUP1 REVERT JUMPDEST POP PUSH1 0x2 PUSH1 0x0 DUP1 PUSH2 0x100 EXP DUP2 SLOAD DUP2 PUSH1 0xFF MUL NOT AND SWAP1 DUP4 PUSH1 0x2 DUP2 GT ISZERO PUSH2 0x2F JUMPI INVALID JUMPDEST MUL OR SWAP1 SSTORE POP PUSH2 0x192 DUP1 PUSH2 0x43 PUSH1 0x0 CODECOPY PUSH1 0x0 RETURN STOP PUSH1 0x80 PUSH1 0x40 MSTORE PUSH1 0x4 CALLDATASIZE LT PUSH2 0x62 JUMPI PUSH1 0x0 CALLDATALOAD PUSH29 0x100000000000000000000000000000000000000000000000000000000 SWAP1 DIV PUSH4 0xFFFFFFFF AND DUP1 PUSH4 0x2930CF24 EQ PUSH2 0x67 JUMPI DUP1 PUSH4 0x6C191324 EQ PUSH2 0x7E JUMPI DUP1 PUSH4 0x91927AF1 EQ PUSH2 0xB7 JUMPI DUP1 PUSH4 0xF2F1E132 EQ PUSH2 0xCE JUMPI JUMPDEST PUSH1 0x0 DUP1 REVERT JUMPDEST CALLVALUE DUP1 ISZERO PUSH2 0x73 JUMPI PUSH1 0x0 DUP1 REVERT JUMPDEST POP PUSH2 0x7C PUSH2 0xE5 JUMP JUMPDEST STOP JUMPDEST CALLVALUE DUP1 ISZERO PUSH2 0x8A JUMPI PUSH1 0x0 DUP1 REVERT JUMPDEST POP PUSH2 0x93 PUSH2 0x10A JUMP JUMPDEST PUSH1 0x40 MLOAD DUP1 DUP3 PUSH1 0x2 DUP2 GT ISZERO PUSH2 0xA3 JUMPI INVALID JUMPDEST PUSH1 0xFF AND DUP2 MSTORE PUSH1 0x20 ADD SWAP2 POP POP PUSH1 0x40 MLOAD DUP1 SWAP2 SUB SWAP1 RETURN JUMPDEST CALLVALUE DUP1 ISZERO PUSH2 0xC3 JUMPI PUSH1 0x0 DUP1 REVERT JUMPDEST POP PUSH2 0xCC PUSH2 0x11C JUMP JUMPDEST STOP JUMPDEST CALLVALUE DUP1 ISZERO PUSH2 0xDA JUMPI PUSH1 0x0 DUP1 REVERT JUMPDEST POP PUSH2 0xE3 PUSH2 0x141 JUMP JUMPDEST STOP JUMPDEST PUSH1 0x0 DUP1 PUSH1 0x0 PUSH2 0x100 EXP DUP2 SLOAD DUP2 PUSH1 0xFF MUL NOT AND SWAP1 DUP4 PUSH1 0x2 DUP2 GT ISZERO PUSH2 0x103 JUMPI INVALID JUMPDEST MUL OR SWAP1 SSTORE POP JUMP JUMPDEST PUSH1 0x0 DUP1 SWAP1 SLOAD SWAP1 PUSH2 0x100 EXP SWAP1 DIV PUSH1 0xFF AND DUP2 JUMP JUMPDEST PUSH1 0x1 PUSH1 0x0 DUP1 PUSH2 0x100 EXP DUP2 SLOAD DUP2 PUSH1 0xFF MUL NOT AND SWAP1 DUP4 PUSH1 0x2 DUP2 GT ISZERO PUSH2 0x13A JUMPI INVALID JUMPDEST MUL OR SWAP1 SSTORE POP JUMP JUMPDEST PUSH1 0x2 PUSH1 0x0 DUP1 PUSH2 0x100 EXP DUP2 SLOAD DUP2 PUSH1 0xFF MUL NOT AND SWAP1 DUP4 PUSH1 0x2 DUP2 GT ISZERO PUSH2 0x15F JUMPI INVALID JUMPDEST MUL OR SWAP1 SSTORE POP JUMP STOP LOG1 PUSH6 0x627A7A723058 KECCAK256 SUB ADDRESS GAS 0xf6 0x26 0xc4 0xbc 0xea 0xe5 0xe8 0xb4 0xb1 ADD 0xd1 0xdb 0xcc 0xa8 0xcf DUP13 0xb6 PUSH23 0x81B2BE0934BB23801AD764002900000000000000000000 "
				},
				"gasEstimates": {
					"creation": {
						"codeDepositCost": "80400",
						"executionCost": "20416",
						"totalCost": "100816"
					},
					"external": {
						"amber()": "20464",
						"green()": "20486",
						"red()": "20420",
						"statusVal()": "484"
					}
				},
				"methodIdentifiers": {
					"amber()": "91927af1",
					"green()": "f2f1e132",
					"red()": "2930cf24",
					"statusVal()": "6c191324"
				}
			},
			"userdoc": {
				"methods": {}
			}
		}
	}
}